{
  "_format": "hh-sol-artifact-1",
  "contractName": "IdentityVerifier",
  "sourceName": "contracts/IdentityVerifier.sol",
  "abi": [
    {
      "inputs": [],
      "stateMutability": "nonpayable",
      "type": "constructor"
    },
    {
      "inputs": [],
      "name": "admin",
      "outputs": [
        {
          "internalType": "address",
          "name": "",
          "type": "address"
        }
      ],
      "stateMutability": "view",
      "type": "function"
    },
    {
      "inputs": [
        {
          "internalType": "address",
          "name": "user",
          "type": "address"
        }
      ],
      "name": "getMetadataHash",
      "outputs": [
        {
          "internalType": "bytes32",
          "name": "",
          "type": "bytes32"
        }
      ],
      "stateMutability": "view",
      "type": "function"
    },
    {
      "inputs": [
        {
          "internalType": "address",
          "name": "",
          "type": "address"
        }
      ],
      "name": "isVerified",
      "outputs": [
        {
          "internalType": "bool",
          "name": "",
          "type": "bool"
        }
      ],
      "stateMutability": "view",
      "type": "function"
    },
    {
      "inputs": [
        {
          "internalType": "address",
          "name": "user",
          "type": "address"
        },
        {
          "internalType": "bytes32",
          "name": "metadataHash",
          "type": "bytes32"
        }
      ],
      "name": "issueIdentity",
      "outputs": [],
      "stateMutability": "nonpayable",
      "type": "function"
    },
    {
      "inputs": [
        {
          "internalType": "bytes32",
          "name": "metadataHash",
          "type": "bytes32"
        }
      ],
      "name": "submitMetadataHash",
      "outputs": [],
      "stateMutability": "nonpayable",
      "type": "function"
    },
    {
      "inputs": [
        {
          "internalType": "address",
          "name": "",
          "type": "address"
        }
      ],
      "name": "userMetadataHash",
      "outputs": [
        {
          "internalType": "bytes32",
          "name": "",
          "type": "bytes32"
        }
      ],
      "stateMutability": "view",
      "type": "function"
    },
    {
      "inputs": [
        {
          "internalType": "address",
          "name": "user",
          "type": "address"
        }
      ],
      "name": "verifyIdentity",
      "outputs": [
        {
          "internalType": "bool",
          "name": "",
          "type": "bool"
        }
      ],
      "stateMutability": "view",
      "type": "function"
    }
  ],
  "bytecode": "0x6080604052348015600f57600080fd5b5033600260006101000a81548173ffffffffffffffffffffffffffffffffffffffff021916908373ffffffffffffffffffffffffffffffffffffffff160217905550610860806100606000396000f3fe608060405234801561001057600080fd5b506004361061007d5760003560e01c8063b5b90fd91161005b578063b5b90fd9146100fe578063b9209e331461012e578063d8242cc41461015e578063f851a4401461017a5761007d565b806345489adf146100825780636b0e48f2146100b257806371e15e86146100e2575b600080fd5b61009c6004803603810190610097919061057b565b610198565b6040516100a991906105c1565b60405180910390f35b6100cc60048036038101906100c7919061057b565b6101e0565b6040516100d991906105c1565b60405180910390f35b6100fc60048036038101906100f79190610608565b6101f8565b005b6101186004803603810190610113919061057b565b6103b3565b6040516101259190610663565b60405180910390f35b6101486004803603810190610143919061057b565b610409565b6040516101559190610663565b60405180910390f35b6101786004803603810190610173919061067e565b610429565b005b6101826104f2565b60405161018f91906106ba565b60405180910390f35b60008060008373ffffffffffffffffffffffffffffffffffffffff1673ffffffffffffffffffffffffffffffffffffffff168152602001908152602001600020549050919050565b60006020528060005260406000206000915090505481565b600260009054906101000a900473ffffffffffffffffffffffffffffffffffffffff1673ffffffffffffffffffffffffffffffffffffffff163373ffffffffffffffffffffffffffffffffffffffff1614610288576040517f08c379a000000000000000000000000000000000000000000000000000000000815260040161027f90610732565b60405180910390fd5b600160008373ffffffffffffffffffffffffffffffffffffffff1673ffffffffffffffffffffffffffffffffffffffff16815260200190815260200160002060009054906101000a900460ff1615610315576040517f08c379a000000000000000000000000000000000000000000000000000000000815260040161030c9061079e565b60405180910390fd5b806000808473ffffffffffffffffffffffffffffffffffffffff1673ffffffffffffffffffffffffffffffffffffffff1681526020019081526020016000208190555060018060008473ffffffffffffffffffffffffffffffffffffffff1673ffffffffffffffffffffffffffffffffffffffff16815260200190815260200160002060006101000a81548160ff0219169083151502179055505050565b6000600160008373ffffffffffffffffffffffffffffffffffffffff1673ffffffffffffffffffffffffffffffffffffffff16815260200190815260200160002060009054906101000a900460ff169050919050565b60016020528060005260406000206000915054906101000a900460ff1681565b6000801b6000803373ffffffffffffffffffffffffffffffffffffffff1673ffffffffffffffffffffffffffffffffffffffff16815260200190815260200160002054146104ac576040517f08c379a00000000000000000000000000000000000000000000000000000000081526004016104a39061080a565b60405180910390fd5b806000803373ffffffffffffffffffffffffffffffffffffffff1673ffffffffffffffffffffffffffffffffffffffff1681526020019081526020016000208190555050565b600260009054906101000a900473ffffffffffffffffffffffffffffffffffffffff1681565b600080fd5b600073ffffffffffffffffffffffffffffffffffffffff82169050919050565b60006105488261051d565b9050919050565b6105588161053d565b811461056357600080fd5b50565b6000813590506105758161054f565b92915050565b60006020828403121561059157610590610518565b5b600061059f84828501610566565b91505092915050565b6000819050919050565b6105bb816105a8565b82525050565b60006020820190506105d660008301846105b2565b92915050565b6105e5816105a8565b81146105f057600080fd5b50565b600081359050610602816105dc565b92915050565b6000806040838503121561061f5761061e610518565b5b600061062d85828601610566565b925050602061063e858286016105f3565b9150509250929050565b60008115159050919050565b61065d81610648565b82525050565b60006020820190506106786000830184610654565b92915050565b60006020828403121561069457610693610518565b5b60006106a2848285016105f3565b91505092915050565b6106b48161053d565b82525050565b60006020820190506106cf60008301846106ab565b92915050565b600082825260208201905092915050565b7f4f6e6c792061646d696e00000000000000000000000000000000000000000000600082015250565b600061071c600a836106d5565b9150610727826106e6565b602082019050919050565b6000602082019050818103600083015261074b8161070f565b9050919050565b7f416c726561647920766572696669656400000000000000000000000000000000600082015250565b60006107886010836106d5565b915061079382610752565b602082019050919050565b600060208201905081810360008301526107b78161077b565b9050919050565b7f416c7265616479207375626d6974746564000000000000000000000000000000600082015250565b60006107f46011836106d5565b91506107ff826107be565b602082019050919050565b60006020820190508181036000830152610823816107e7565b905091905056fea2646970667358221220825feff3aa5b5638c912b2d2ea217c01e4c9e327c0b0d655e16afe0ac89efa5164736f6c634300081c0033",
  "linkReferences": {},
  "deployedLinkReferences": {}
}