{
  "_format": "hh-sol-artifact-1",
  "contractName": "IdentityVerifier",
  "sourceName": "contracts/IdentityVerifier.sol",
  "abi": [
    {
      "inputs": [],
      "stateMutability": "nonpayable",
      "type": "constructor"
    },
    {
      "inputs": [
        {
          "internalType": "address",
          "name": "sender",
          "type": "address"
        },
        {
          "internalType": "uint256",
          "name": "tokenId",
          "type": "uint256"
        },
        {
          "internalType": "address",
          "name": "owner",
          "type": "address"
        }
      ],
      "name": "ERC721IncorrectOwner",
      "type": "error"
    },
    {
      "inputs": [
        {
          "internalType": "address",
          "name": "operator",
          "type": "address"
        },
        {
          "internalType": "uint256",
          "name": "tokenId",
          "type": "uint256"
        }
      ],
      "name": "ERC721InsufficientApproval",
      "type": "error"
    },
    {
      "inputs": [
        {
          "internalType": "address",
          "name": "approver",
          "type": "address"
        }
      ],
      "name": "ERC721InvalidApprover",
      "type": "error"
    },
    {
      "inputs": [
        {
          "internalType": "address",
          "name": "operator",
          "type": "address"
        }
      ],
      "name": "ERC721InvalidOperator",
      "type": "error"
    },
    {
      "inputs": [
        {
          "internalType": "address",
          "name": "owner",
          "type": "address"
        }
      ],
      "name": "ERC721InvalidOwner",
      "type": "error"
    },
    {
      "inputs": [
        {
          "internalType": "address",
          "name": "receiver",
          "type": "address"
        }
      ],
      "name": "ERC721InvalidReceiver",
      "type": "error"
    },
    {
      "inputs": [
        {
          "internalType": "address",
          "name": "sender",
          "type": "address"
        }
      ],
      "name": "ERC721InvalidSender",
      "type": "error"
    },
    {
      "inputs": [
        {
          "internalType": "uint256",
          "name": "tokenId",
          "type": "uint256"
        }
      ],
      "name": "ERC721NonexistentToken",
      "type": "error"
    },
    {
      "inputs": [
        {
          "internalType": "address",
          "name": "owner",
          "type": "address"
        }
      ],
      "name": "OwnableInvalidOwner",
      "type": "error"
    },
    {
      "inputs": [
        {
          "internalType": "address",
          "name": "account",
          "type": "address"
        }
      ],
      "name": "OwnableUnauthorizedAccount",
      "type": "error"
    },
    {
      "anonymous": false,
      "inputs": [
        {
          "indexed": true,
          "internalType": "address",
          "name": "owner",
          "type": "address"
        },
        {
          "indexed": true,
          "internalType": "address",
          "name": "approved",
          "type": "address"
        },
        {
          "indexed": true,
          "internalType": "uint256",
          "name": "tokenId",
          "type": "uint256"
        }
      ],
      "name": "Approval",
      "type": "event"
    },
    {
      "anonymous": false,
      "inputs": [
        {
          "indexed": true,
          "internalType": "address",
          "name": "owner",
          "type": "address"
        },
        {
          "indexed": true,
          "internalType": "address",
          "name": "operator",
          "type": "address"
        },
        {
          "indexed": false,
          "internalType": "bool",
          "name": "approved",
          "type": "bool"
        }
      ],
      "name": "ApprovalForAll",
      "type": "event"
    },
    {
      "anonymous": false,
      "inputs": [
        {
          "indexed": false,
          "internalType": "uint256",
          "name": "_fromTokenId",
          "type": "uint256"
        },
        {
          "indexed": false,
          "internalType": "uint256",
          "name": "_toTokenId",
          "type": "uint256"
        }
      ],
      "name": "BatchMetadataUpdate",
      "type": "event"
    },
    {
      "anonymous": false,
      "inputs": [
        {
          "indexed": false,
          "internalType": "uint256",
          "name": "_tokenId",
          "type": "uint256"
        }
      ],
      "name": "MetadataUpdate",
      "type": "event"
    },
    {
      "anonymous": false,
      "inputs": [
        {
          "indexed": true,
          "internalType": "address",
          "name": "previousOwner",
          "type": "address"
        },
        {
          "indexed": true,
          "internalType": "address",
          "name": "newOwner",
          "type": "address"
        }
      ],
      "name": "OwnershipTransferred",
      "type": "event"
    },
    {
      "anonymous": false,
      "inputs": [
        {
          "indexed": true,
          "internalType": "address",
          "name": "from",
          "type": "address"
        },
        {
          "indexed": true,
          "internalType": "address",
          "name": "to",
          "type": "address"
        },
        {
          "indexed": true,
          "internalType": "uint256",
          "name": "tokenId",
          "type": "uint256"
        }
      ],
      "name": "Transfer",
      "type": "event"
    },
    {
      "inputs": [
        {
          "internalType": "address",
          "name": "to",
          "type": "address"
        },
        {
          "internalType": "uint256",
          "name": "tokenId",
          "type": "uint256"
        }
      ],
      "name": "approve",
      "outputs": [],
      "stateMutability": "nonpayable",
      "type": "function"
    },
    {
      "inputs": [
        {
          "internalType": "address",
          "name": "owner",
          "type": "address"
        }
      ],
      "name": "balanceOf",
      "outputs": [
        {
          "internalType": "uint256",
          "name": "",
          "type": "uint256"
        }
      ],
      "stateMutability": "view",
      "type": "function"
    },
    {
      "inputs": [
        {
          "internalType": "uint256",
          "name": "tokenId",
          "type": "uint256"
        }
      ],
      "name": "getApproved",
      "outputs": [
        {
          "internalType": "address",
          "name": "",
          "type": "address"
        }
      ],
      "stateMutability": "view",
      "type": "function"
    },
    {
      "inputs": [
        {
          "internalType": "address",
          "name": "owner",
          "type": "address"
        },
        {
          "internalType": "address",
          "name": "operator",
          "type": "address"
        }
      ],
      "name": "isApprovedForAll",
      "outputs": [
        {
          "internalType": "bool",
          "name": "",
          "type": "bool"
        }
      ],
      "stateMutability": "view",
      "type": "function"
    },
    {
      "inputs": [
        {
          "internalType": "address",
          "name": "user",
          "type": "address"
        },
        {
          "internalType": "string",
          "name": "metadataURI",
          "type": "string"
        }
      ],
      "name": "issueIdentity",
      "outputs": [
        {
          "internalType": "uint256",
          "name": "",
          "type": "uint256"
        }
      ],
      "stateMutability": "nonpayable",
      "type": "function"
    },
    {
      "inputs": [],
      "name": "name",
      "outputs": [
        {
          "internalType": "string",
          "name": "",
          "type": "string"
        }
      ],
      "stateMutability": "view",
      "type": "function"
    },
    {
      "inputs": [],
      "name": "owner",
      "outputs": [
        {
          "internalType": "address",
          "name": "",
          "type": "address"
        }
      ],
      "stateMutability": "view",
      "type": "function"
    },
    {
      "inputs": [
        {
          "internalType": "uint256",
          "name": "tokenId",
          "type": "uint256"
        }
      ],
      "name": "ownerOf",
      "outputs": [
        {
          "internalType": "address",
          "name": "",
          "type": "address"
        }
      ],
      "stateMutability": "view",
      "type": "function"
    },
    {
      "inputs": [],
      "name": "renounceOwnership",
      "outputs": [],
      "stateMutability": "nonpayable",
      "type": "function"
    },
    {
      "inputs": [
        {
          "internalType": "address",
          "name": "from",
          "type": "address"
        },
        {
          "internalType": "address",
          "name": "to",
          "type": "address"
        },
        {
          "internalType": "uint256",
          "name": "tokenId",
          "type": "uint256"
        }
      ],
      "name": "safeTransferFrom",
      "outputs": [],
      "stateMutability": "nonpayable",
      "type": "function"
    },
    {
      "inputs": [
        {
          "internalType": "address",
          "name": "from",
          "type": "address"
        },
        {
          "internalType": "address",
          "name": "to",
          "type": "address"
        },
        {
          "internalType": "uint256",
          "name": "tokenId",
          "type": "uint256"
        },
        {
          "internalType": "bytes",
          "name": "data",
          "type": "bytes"
        }
      ],
      "name": "safeTransferFrom",
      "outputs": [],
      "stateMutability": "nonpayable",
      "type": "function"
    },
    {
      "inputs": [
        {
          "internalType": "address",
          "name": "operator",
          "type": "address"
        },
        {
          "internalType": "bool",
          "name": "approved",
          "type": "bool"
        }
      ],
      "name": "setApprovalForAll",
      "outputs": [],
      "stateMutability": "nonpayable",
      "type": "function"
    },
    {
      "inputs": [
        {
          "internalType": "bytes4",
          "name": "interfaceId",
          "type": "bytes4"
        }
      ],
      "name": "supportsInterface",
      "outputs": [
        {
          "internalType": "bool",
          "name": "",
          "type": "bool"
        }
      ],
      "stateMutability": "view",
      "type": "function"
    },
    {
      "inputs": [],
      "name": "symbol",
      "outputs": [
        {
          "internalType": "string",
          "name": "",
          "type": "string"
        }
      ],
      "stateMutability": "view",
      "type": "function"
    },
    {
      "inputs": [
        {
          "internalType": "uint256",
          "name": "tokenId",
          "type": "uint256"
        }
      ],
      "name": "tokenURI",
      "outputs": [
        {
          "internalType": "string",
          "name": "",
          "type": "string"
        }
      ],
      "stateMutability": "view",
      "type": "function"
    },
    {
      "inputs": [
        {
          "internalType": "address",
          "name": "from",
          "type": "address"
        },
        {
          "internalType": "address",
          "name": "to",
          "type": "address"
        },
        {
          "internalType": "uint256",
          "name": "tokenId",
          "type": "uint256"
        }
      ],
      "name": "transferFrom",
      "outputs": [],
      "stateMutability": "nonpayable",
      "type": "function"
    },
    {
      "inputs": [
        {
          "internalType": "address",
          "name": "newOwner",
          "type": "address"
        }
      ],
      "name": "transferOwnership",
      "outputs": [],
      "stateMutability": "nonpayable",
      "type": "function"
    },
    {
      "inputs": [
        {
          "internalType": "address",
          "name": "",
          "type": "address"
        }
      ],
      "name": "verifiedUsers",
      "outputs": [
        {
          "internalType": "bool",
          "name": "",
          "type": "bool"
        }
      ],
      "stateMutability": "view",
      "type": "function"
    },
    {
      "inputs": [
        {
          "internalType": "address",
          "name": "user",
          "type": "address"
        }
      ],
      "name": "verifyIdentity",
      "outputs": [
        {
          "internalType": "bool",
          "name": "",
          "type": "bool"
        }
      ],
      "stateMutability": "view",
      "type": "function"
    }
  ],
  "bytecode": "0x608060405234801561001057600080fd5b5061001f61013460201b60201c565b6040518060400160405280601081526020017f56657269666965644964656e74697479000000000000000000000000000000008152506040518060400160405280600381526020017f5649440000000000000000000000000000000000000000000000000000000000815250816000908161009a9190610452565b5080600190816100aa9190610452565b505050600073ffffffffffffffffffffffffffffffffffffffff168173ffffffffffffffffffffffffffffffffffffffff160361011f5760006040517f1e4fbdf70000000000000000000000000000000000000000000000000000000081526004016101169190610565565b60405180910390fd5b61012e8161013c60201b60201c565b50610580565b600033905090565b6000600760009054906101000a900473ffffffffffffffffffffffffffffffffffffffff16905081600760006101000a81548173ffffffffffffffffffffffffffffffffffffffff021916908373ffffffffffffffffffffffffffffffffffffffff1602179055508173ffffffffffffffffffffffffffffffffffffffff168173ffffffffffffffffffffffffffffffffffffffff167f8be0079c531659141344cd1fd0a4f28419497f9722a3daafe3b4186f6b6457e060405160405180910390a35050565b600081519050919050565b7f4e487b7100000000000000000000000000000000000000000000000000000000600052604160045260246000fd5b7f4e487b7100000000000000000000000000000000000000000000000000000000600052602260045260246000fd5b6000600282049050600182168061028357607f821691505b6020821081036102965761029561023c565b5b50919050565b60008190508160005260206000209050919050565b60006020601f8301049050919050565b600082821b905092915050565b6000600883026102fe7fffffffffffffffffffffffffffffffffffffffffffffffffffffffffffffffff826102c1565b61030886836102c1565b95508019841693508086168417925050509392505050565b6000819050919050565b6000819050919050565b600061034f61034a61034584610320565b61032a565b610320565b9050919050565b6000819050919050565b61036983610334565b61037d61037582610356565b8484546102ce565b825550505050565b600090565b610392610385565b61039d818484610360565b505050565b5b818110156103c1576103b660008261038a565b6001810190506103a3565b5050565b601f821115610406576103d78161029c565b6103e0846102b1565b810160208510156103ef578190505b6104036103fb856102b1565b8301826103a2565b50505b505050565b600082821c905092915050565b60006104296000198460080261040b565b1980831691505092915050565b60006104428383610418565b9150826002028217905092915050565b61045b82610202565b67ffffffffffffffff8111156104745761047361020d565b5b61047e825461026b565b6104898282856103c5565b600060209050601f8311600181146104bc57600084156104aa578287015190505b6104b48582610436565b86555061051c565b601f1984166104ca8661029c565b60005b828110156104f2578489015182556001820191506020850194506020810190506104cd565b8683101561050f578489015161050b601f891682610418565b8355505b6001600288020188555050505b505050505050565b600073ffffffffffffffffffffffffffffffffffffffff82169050919050565b600061054f82610524565b9050919050565b61055f81610544565b82525050565b600060208201905061057a6000830184610556565b92915050565b61287e8061058f6000396000f3fe608060405234801561001057600080fd5b50600436106101215760003560e01c80638da5cb5b116100ad578063b88d4fde11610071578063b88d4fde1461031a578063c87b56dd14610336578063e35fe36614610366578063e985e9c514610396578063f2fde38b146103c657610121565b80638da5cb5b1461026257806395d89b4114610280578063a22cb4651461029e578063b0d026cb146102ba578063b5b90fd9146102ea57610121565b806323b872dd116100f457806323b872dd146101c057806342842e0e146101dc5780636352211e146101f857806370a0823114610228578063715018a61461025857610121565b806301ffc9a71461012657806306fdde0314610156578063081812fc14610174578063095ea7b3146101a4575b600080fd5b610140600480360381019061013b9190611c6a565b6103e2565b60405161014d9190611cb2565b60405180910390f35b61015e610443565b60405161016b9190611d5d565b60405180910390f35b61018e60048036038101906101899190611db5565b6104d5565b60405161019b9190611e23565b60405180910390f35b6101be60048036038101906101b99190611e6a565b6104f1565b005b6101da60048036038101906101d59190611eaa565b610507565b005b6101f660048036038101906101f19190611eaa565b610609565b005b610212600480360381019061020d9190611db5565b610629565b60405161021f9190611e23565b60405180910390f35b610242600480360381019061023d9190611efd565b61063b565b60405161024f9190611f39565b60405180910390f35b6102606106f5565b005b61026a610709565b6040516102779190611e23565b60405180910390f35b610288610733565b6040516102959190611d5d565b60405180910390f35b6102b860048036038101906102b39190611f80565b6107c5565b005b6102d460048036038101906102cf91906120f5565b6107db565b6040516102e19190611f39565b60405180910390f35b61030460048036038101906102ff9190611efd565b610907565b6040516103119190611cb2565b60405180910390f35b610334600480360381019061032f91906121f2565b61095d565b005b610350600480360381019061034b9190611db5565b610982565b60405161035d9190611d5d565b60405180910390f35b610380600480360381019061037b9190611efd565b610a95565b60405161038d9190611cb2565b60405180910390f35b6103b060048036038101906103ab9190612275565b610ab5565b6040516103bd9190611cb2565b60405180910390f35b6103e060048036038101906103db9190611efd565b610b49565b005b6000634906490660e01b7bffffffffffffffffffffffffffffffffffffffffffffffffffffffff1916827bffffffffffffffffffffffffffffffffffffffffffffffffffffffff1916148061043c575061043b82610bcf565b5b9050919050565b606060008054610452906122e4565b80601f016020809104026020016040519081016040528092919081815260200182805461047e906122e4565b80156104cb5780601f106104a0576101008083540402835291602001916104cb565b820191906000526020600020905b8154815290600101906020018083116104ae57829003601f168201915b5050505050905090565b60006104e082610cb1565b506104ea82610d39565b9050919050565b61050382826104fe610d76565b610d7e565b5050565b600073ffffffffffffffffffffffffffffffffffffffff168273ffffffffffffffffffffffffffffffffffffffff16036105795760006040517f64a0ae920000000000000000000000000000000000000000000000000000000081526004016105709190611e23565b60405180910390fd5b600061058d8383610588610d76565b610d90565b90508373ffffffffffffffffffffffffffffffffffffffff168173ffffffffffffffffffffffffffffffffffffffff1614610603578382826040517f64283d7b0000000000000000000000000000000000000000000000000000000081526004016105fa93929190612315565b60405180910390fd5b50505050565b6106248383836040518060200160405280600081525061095d565b505050565b600061063482610cb1565b9050919050565b60008073ffffffffffffffffffffffffffffffffffffffff168273ffffffffffffffffffffffffffffffffffffffff16036106ae5760006040517f89c62b640000000000000000000000000000000000000000000000000000000081526004016106a59190611e23565b60405180910390fd5b600360008373ffffffffffffffffffffffffffffffffffffffff1673ffffffffffffffffffffffffffffffffffffffff168152602001908152602001600020549050919050565b6106fd610faa565b6107076000611031565b565b6000600760009054906101000a900473ffffffffffffffffffffffffffffffffffffffff16905090565b606060018054610742906122e4565b80601f016020809104026020016040519081016040528092919081815260200182805461076e906122e4565b80156107bb5780601f10610790576101008083540402835291602001916107bb565b820191906000526020600020905b81548152906001019060200180831161079e57829003601f168201915b5050505050905090565b6107d76107d0610d76565b83836110f7565b5050565b60006107e5610faa565b600960008473ffffffffffffffffffffffffffffffffffffffff1673ffffffffffffffffffffffffffffffffffffffff16815260200190815260200160002060009054906101000a900460ff1615610872576040517f08c379a000000000000000000000000000000000000000000000000000000000815260040161086990612398565b60405180910390fd5b60086000815480929190610885906123e7565b91905055506000600854905061089b8482611266565b6108a5818461135f565b6001600960008673ffffffffffffffffffffffffffffffffffffffff1673ffffffffffffffffffffffffffffffffffffffff16815260200190815260200160002060006101000a81548160ff0219169083151502179055508091505092915050565b6000600960008373ffffffffffffffffffffffffffffffffffffffff1673ffffffffffffffffffffffffffffffffffffffff16815260200190815260200160002060009054906101000a900460ff169050919050565b610968848484610507565b61097c610973610d76565b858585856113bb565b50505050565b606061098d82610cb1565b5060006006600084815260200190815260200160002080546109ae906122e4565b80601f01602080910402602001604051908101604052809291908181526020018280546109da906122e4565b8015610a275780601f106109fc57610100808354040283529160200191610a27565b820191906000526020600020905b815481529060010190602001808311610a0a57829003601f168201915b505050505090506000610a3861156c565b90506000815103610a4d578192505050610a90565b600082511115610a82578082604051602001610a6a92919061246b565b60405160208183030381529060405292505050610a90565b610a8b84611583565b925050505b919050565b60096020528060005260406000206000915054906101000a900460ff1681565b6000600560008473ffffffffffffffffffffffffffffffffffffffff1673ffffffffffffffffffffffffffffffffffffffff16815260200190815260200160002060008373ffffffffffffffffffffffffffffffffffffffff1673ffffffffffffffffffffffffffffffffffffffff16815260200190815260200160002060009054906101000a900460ff16905092915050565b610b51610faa565b600073ffffffffffffffffffffffffffffffffffffffff168173ffffffffffffffffffffffffffffffffffffffff1603610bc35760006040517f1e4fbdf7000000000000000000000000000000000000000000000000000000008152600401610bba9190611e23565b60405180910390fd5b610bcc81611031565b50565b60007f80ac58cd000000000000000000000000000000000000000000000000000000007bffffffffffffffffffffffffffffffffffffffffffffffffffffffff1916827bffffffffffffffffffffffffffffffffffffffffffffffffffffffff19161480610c9a57507f5b5e139f000000000000000000000000000000000000000000000000000000007bffffffffffffffffffffffffffffffffffffffffffffffffffffffff1916827bffffffffffffffffffffffffffffffffffffffffffffffffffffffff1916145b80610caa5750610ca9826115ec565b5b9050919050565b600080610cbd83611656565b9050600073ffffffffffffffffffffffffffffffffffffffff168173ffffffffffffffffffffffffffffffffffffffff1603610d3057826040517f7e273289000000000000000000000000000000000000000000000000000000008152600401610d279190611f39565b60405180910390fd5b80915050919050565b60006004600083815260200190815260200160002060009054906101000a900473ffffffffffffffffffffffffffffffffffffffff169050919050565b600033905090565b610d8b8383836001611693565b505050565b600080610d9c84611656565b9050600073ffffffffffffffffffffffffffffffffffffffff168373ffffffffffffffffffffffffffffffffffffffff1614610dde57610ddd818486611858565b5b600073ffffffffffffffffffffffffffffffffffffffff168173ffffffffffffffffffffffffffffffffffffffff1614610e6f57610e20600085600080611693565b6001600360008373ffffffffffffffffffffffffffffffffffffffff1673ffffffffffffffffffffffffffffffffffffffff168152602001908152602001600020600082825403925050819055505b600073ffffffffffffffffffffffffffffffffffffffff168573ffffffffffffffffffffffffffffffffffffffff1614610ef2576001600360008773ffffffffffffffffffffffffffffffffffffffff1673ffffffffffffffffffffffffffffffffffffffff168152602001908152602001600020600082825401925050819055505b846002600086815260200190815260200160002060006101000a81548173ffffffffffffffffffffffffffffffffffffffff021916908373ffffffffffffffffffffffffffffffffffffffff160217905550838573ffffffffffffffffffffffffffffffffffffffff168273ffffffffffffffffffffffffffffffffffffffff167fddf252ad1be2c89b69c2b068fc378daa952ba7f163c4a11628f55a4df523b3ef60405160405180910390a4809150509392505050565b610fb2610d76565b73ffffffffffffffffffffffffffffffffffffffff16610fd0610709565b73ffffffffffffffffffffffffffffffffffffffff161461102f57610ff3610d76565b6040517f118cdaa70000000000000000000000000000000000000000000000000000000081526004016110269190611e23565b60405180910390fd5b565b6000600760009054906101000a900473ffffffffffffffffffffffffffffffffffffffff16905081600760006101000a81548173ffffffffffffffffffffffffffffffffffffffff021916908373ffffffffffffffffffffffffffffffffffffffff1602179055508173ffffffffffffffffffffffffffffffffffffffff168173ffffffffffffffffffffffffffffffffffffffff167f8be0079c531659141344cd1fd0a4f28419497f9722a3daafe3b4186f6b6457e060405160405180910390a35050565b600073ffffffffffffffffffffffffffffffffffffffff168273ffffffffffffffffffffffffffffffffffffffff160361116857816040517f5b08ba1800000000000000000000000000000000000000000000000000000000815260040161115f9190611e23565b60405180910390fd5b80600560008573ffffffffffffffffffffffffffffffffffffffff1673ffffffffffffffffffffffffffffffffffffffff16815260200190815260200160002060008473ffffffffffffffffffffffffffffffffffffffff1673ffffffffffffffffffffffffffffffffffffffff16815260200190815260200160002060006101000a81548160ff0219169083151502179055508173ffffffffffffffffffffffffffffffffffffffff168373ffffffffffffffffffffffffffffffffffffffff167f17307eab39ab6107e8899845ad3d59bd9653f200f220920489ca2b5937696c31836040516112599190611cb2565b60405180910390a3505050565b600073ffffffffffffffffffffffffffffffffffffffff168273ffffffffffffffffffffffffffffffffffffffff16036112d85760006040517f64a0ae920000000000000000000000000000000000000000000000000000000081526004016112cf9190611e23565b60405180910390fd5b60006112e683836000610d90565b9050600073ffffffffffffffffffffffffffffffffffffffff168173ffffffffffffffffffffffffffffffffffffffff161461135a5760006040517f73c6ac6e0000000000000000000000000000000000000000000000000000000081526004016113519190611e23565b60405180910390fd5b505050565b8060066000848152602001908152602001600020908161137f919061263b565b507ff8e1a15aba9398e019f0b49df1a4fde98ee17ae345cb5f6b5e2c27f5033e8ce7826040516113af9190611f39565b60405180910390a15050565b60008373ffffffffffffffffffffffffffffffffffffffff163b1115611565578273ffffffffffffffffffffffffffffffffffffffff1663150b7a02868685856040518563ffffffff1660e01b815260040161141a9493929190612762565b6020604051808303816000875af192505050801561145657506040513d601f19601f8201168201806040525081019061145391906127c3565b60015b6114da573d8060008114611486576040519150601f19603f3d011682016040523d82523d6000602084013e61148b565b606091505b5060008151036114d257836040517f64a0ae920000000000000000000000000000000000000000000000000000000081526004016114c99190611e23565b60405180910390fd5b805181602001fd5b63150b7a0260e01b7bffffffffffffffffffffffffffffffffffffffffffffffffffffffff1916817bffffffffffffffffffffffffffffffffffffffffffffffffffffffff19161461156357836040517f64a0ae9200000000000000000000000000000000000000000000000000000000815260040161155a9190611e23565b60405180910390fd5b505b5050505050565b606060405180602001604052806000815250905090565b606061158e82610cb1565b50600061159961156c565b905060008151116115b957604051806020016040528060008152506115e4565b806115c38461191c565b6040516020016115d492919061246b565b6040516020818303038152906040525b915050919050565b60007f01ffc9a7000000000000000000000000000000000000000000000000000000007bffffffffffffffffffffffffffffffffffffffffffffffffffffffff1916827bffffffffffffffffffffffffffffffffffffffffffffffffffffffff1916149050919050565b60006002600083815260200190815260200160002060009054906101000a900473ffffffffffffffffffffffffffffffffffffffff169050919050565b80806116cc5750600073ffffffffffffffffffffffffffffffffffffffff168273ffffffffffffffffffffffffffffffffffffffff1614155b156118005760006116dc84610cb1565b9050600073ffffffffffffffffffffffffffffffffffffffff168373ffffffffffffffffffffffffffffffffffffffff161415801561174757508273ffffffffffffffffffffffffffffffffffffffff168173ffffffffffffffffffffffffffffffffffffffff1614155b801561175a57506117588184610ab5565b155b1561179c57826040517fa9fbf51f0000000000000000000000000000000000000000000000000000000081526004016117939190611e23565b60405180910390fd5b81156117fe57838573ffffffffffffffffffffffffffffffffffffffff168273ffffffffffffffffffffffffffffffffffffffff167f8c5be1e5ebec7d5bd14f71427d1e84f3dd0314c0f7b2291e5b200ac8c7c3b92560405160405180910390a45b505b836004600085815260200190815260200160002060006101000a81548173ffffffffffffffffffffffffffffffffffffffff021916908373ffffffffffffffffffffffffffffffffffffffff16021790555050505050565b6118638383836119ea565b61191757600073ffffffffffffffffffffffffffffffffffffffff168373ffffffffffffffffffffffffffffffffffffffff16036118d857806040517f7e2732890000000000000000000000000000000000000000000000000000000081526004016118cf9190611f39565b60405180910390fd5b81816040517f177e802f00000000000000000000000000000000000000000000000000000000815260040161190e9291906127f0565b60405180910390fd5b505050565b60606000600161192b84611aab565b01905060008167ffffffffffffffff81111561194a57611949611fca565b5b6040519080825280601f01601f19166020018201604052801561197c5781602001600182028036833780820191505090505b509050600082602001820190505b6001156119df578080600190039150507f3031323334353637383961626364656600000000000000000000000000000000600a86061a8153600a85816119d3576119d2612819565b5b0494506000850361198a575b819350505050919050565b60008073ffffffffffffffffffffffffffffffffffffffff168373ffffffffffffffffffffffffffffffffffffffff1614158015611aa257508273ffffffffffffffffffffffffffffffffffffffff168473ffffffffffffffffffffffffffffffffffffffff161480611a635750611a628484610ab5565b5b80611aa157508273ffffffffffffffffffffffffffffffffffffffff16611a8983610d39565b73ffffffffffffffffffffffffffffffffffffffff16145b5b90509392505050565b600080600090507a184f03e93ff9f4daa797ed6e38ed64bf6a1f0100000000000000008310611b09577a184f03e93ff9f4daa797ed6e38ed64bf6a1f0100000000000000008381611aff57611afe612819565b5b0492506040810190505b6d04ee2d6d415b85acef81000000008310611b46576d04ee2d6d415b85acef81000000008381611b3c57611b3b612819565b5b0492506020810190505b662386f26fc100008310611b7557662386f26fc100008381611b6b57611b6a612819565b5b0492506010810190505b6305f5e1008310611b9e576305f5e1008381611b9457611b93612819565b5b0492506008810190505b6127108310611bc3576127108381611bb957611bb8612819565b5b0492506004810190505b60648310611be65760648381611bdc57611bdb612819565b5b0492506002810190505b600a8310611bf5576001810190505b80915050919050565b6000604051905090565b600080fd5b600080fd5b60007fffffffff0000000000000000000000000000000000000000000000000000000082169050919050565b611c4781611c12565b8114611c5257600080fd5b50565b600081359050611c6481611c3e565b92915050565b600060208284031215611c8057611c7f611c08565b5b6000611c8e84828501611c55565b91505092915050565b60008115159050919050565b611cac81611c97565b82525050565b6000602082019050611cc76000830184611ca3565b92915050565b600081519050919050565b600082825260208201905092915050565b60005b83811015611d07578082015181840152602081019050611cec565b60008484015250505050565b6000601f19601f8301169050919050565b6000611d2f82611ccd565b611d398185611cd8565b9350611d49818560208601611ce9565b611d5281611d13565b840191505092915050565b60006020820190508181036000830152611d778184611d24565b905092915050565b6000819050919050565b611d9281611d7f565b8114611d9d57600080fd5b50565b600081359050611daf81611d89565b92915050565b600060208284031215611dcb57611dca611c08565b5b6000611dd984828501611da0565b91505092915050565b600073ffffffffffffffffffffffffffffffffffffffff82169050919050565b6000611e0d82611de2565b9050919050565b611e1d81611e02565b82525050565b6000602082019050611e386000830184611e14565b92915050565b611e4781611e02565b8114611e5257600080fd5b50565b600081359050611e6481611e3e565b92915050565b60008060408385031215611e8157611e80611c08565b5b6000611e8f85828601611e55565b9250506020611ea085828601611da0565b9150509250929050565b600080600060608486031215611ec357611ec2611c08565b5b6000611ed186828701611e55565b9350506020611ee286828701611e55565b9250506040611ef386828701611da0565b9150509250925092565b600060208284031215611f1357611f12611c08565b5b6000611f2184828501611e55565b91505092915050565b611f3381611d7f565b82525050565b6000602082019050611f4e6000830184611f2a565b92915050565b611f5d81611c97565b8114611f6857600080fd5b50565b600081359050611f7a81611f54565b92915050565b60008060408385031215611f9757611f96611c08565b5b6000611fa585828601611e55565b9250506020611fb685828601611f6b565b9150509250929050565b600080fd5b600080fd5b7f4e487b7100000000000000000000000000000000000000000000000000000000600052604160045260246000fd5b61200282611d13565b810181811067ffffffffffffffff8211171561202157612020611fca565b5b80604052505050565b6000612034611bfe565b90506120408282611ff9565b919050565b600067ffffffffffffffff8211156120605761205f611fca565b5b61206982611d13565b9050602081019050919050565b82818337600083830152505050565b600061209861209384612045565b61202a565b9050828152602081018484840111156120b4576120b3611fc5565b5b6120bf848285612076565b509392505050565b600082601f8301126120dc576120db611fc0565b5b81356120ec848260208601612085565b91505092915050565b6000806040838503121561210c5761210b611c08565b5b600061211a85828601611e55565b925050602083013567ffffffffffffffff81111561213b5761213a611c0d565b5b612147858286016120c7565b9150509250929050565b600067ffffffffffffffff82111561216c5761216b611fca565b5b61217582611d13565b9050602081019050919050565b600061219561219084612151565b61202a565b9050828152602081018484840111156121b1576121b0611fc5565b5b6121bc848285612076565b509392505050565b600082601f8301126121d9576121d8611fc0565b5b81356121e9848260208601612182565b91505092915050565b6000806000806080858703121561220c5761220b611c08565b5b600061221a87828801611e55565b945050602061222b87828801611e55565b935050604061223c87828801611da0565b925050606085013567ffffffffffffffff81111561225d5761225c611c0d565b5b612269878288016121c4565b91505092959194509250565b6000806040838503121561228c5761228b611c08565b5b600061229a85828601611e55565b92505060206122ab85828601611e55565b9150509250929050565b7f4e487b7100000000000000000000000000000000000000000000000000000000600052602260045260246000fd5b600060028204905060018216806122fc57607f821691505b60208210810361230f5761230e6122b5565b5b50919050565b600060608201905061232a6000830186611e14565b6123376020830185611f2a565b6123446040830184611e14565b949350505050565b7f5573657220616c72656164792076657269666965640000000000000000000000600082015250565b6000612382601583611cd8565b915061238d8261234c565b602082019050919050565b600060208201905081810360008301526123b181612375565b9050919050565b7f4e487b7100000000000000000000000000000000000000000000000000000000600052601160045260246000fd5b60006123f282611d7f565b91507fffffffffffffffffffffffffffffffffffffffffffffffffffffffffffffffff8203612424576124236123b8565b5b600182019050919050565b600081905092915050565b600061244582611ccd565b61244f818561242f565b935061245f818560208601611ce9565b80840191505092915050565b6000612477828561243a565b9150612483828461243a565b91508190509392505050565b60008190508160005260206000209050919050565b60006020601f8301049050919050565b600082821b905092915050565b6000600883026124f17fffffffffffffffffffffffffffffffffffffffffffffffffffffffffffffffff826124b4565b6124fb86836124b4565b95508019841693508086168417925050509392505050565b6000819050919050565b600061253861253361252e84611d7f565b612513565b611d7f565b9050919050565b6000819050919050565b6125528361251d565b61256661255e8261253f565b8484546124c1565b825550505050565b600090565b61257b61256e565b612586818484612549565b505050565b5b818110156125aa5761259f600082612573565b60018101905061258c565b5050565b601f8211156125ef576125c08161248f565b6125c9846124a4565b810160208510156125d8578190505b6125ec6125e4856124a4565b83018261258b565b50505b505050565b600082821c905092915050565b6000612612600019846008026125f4565b1980831691505092915050565b600061262b8383612601565b9150826002028217905092915050565b61264482611ccd565b67ffffffffffffffff81111561265d5761265c611fca565b5b61266782546122e4565b6126728282856125ae565b600060209050601f8311600181146126a55760008415612693578287015190505b61269d858261261f565b865550612705565b601f1984166126b38661248f565b60005b828110156126db578489015182556001820191506020850194506020810190506126b6565b868310156126f857848901516126f4601f891682612601565b8355505b6001600288020188555050505b505050505050565b600081519050919050565b600082825260208201905092915050565b60006127348261270d565b61273e8185612718565b935061274e818560208601611ce9565b61275781611d13565b840191505092915050565b60006080820190506127776000830187611e14565b6127846020830186611e14565b6127916040830185611f2a565b81810360608301526127a38184612729565b905095945050505050565b6000815190506127bd81611c3e565b92915050565b6000602082840312156127d9576127d8611c08565b5b60006127e7848285016127ae565b91505092915050565b60006040820190506128056000830185611e14565b6128126020830184611f2a565b9392505050565b7f4e487b7100000000000000000000000000000000000000000000000000000000600052601260045260246000fdfea26469706673582212202cad9cf114624470db521bee9d9aff13fe37696fd1c159c7e69677dbb586ad7864736f6c634300081c0033",
  "linkReferences": {},
  "deployedLinkReferences": {}
}